:020000040800F2
:100000001011002095010008E91300082D0F0008C9
:10001000C90F00089B080008D92100080000000053
:10002000000000000000000000000000F9150008BA
:10003000410A00080000000071140008D1160008F1
:10004000AF010008AF010008AF010008AF010008D0
:10005000AF010008AF010008AF010008AF010008C0
:10006000AF010008AF010008AF010008AF010008B0
:10007000AF010008AF010008AF010008AF010008A0
:10008000AF010008AF010008AF010008AF01000890
:10009000AF010008AF010008AF010008AF01000880
:1000A000AF010008AF010008AF010008F117000818
:1000B000AF010008AF0100086D190008AF0100088A
:1000C000AF010008AF010008AF010008AF01000850
:1000D000AF010008FD1C0008AF010008AF010008D7
:1000E000AF010008AF010008AF010008AF01000830
:1000F00000F002F800F03FF80AA090E8000C8244FB
:100100008344AAF10107DA4501D100F034F8AFF2D7
:10011000090EBAE80F0013F0010F18BFFB1A43F0E5
:1001200001031847582C0000782C0000103A24BF17
:1001300078C878C1FAD8520724BF30C830C144BF4C
:1001400004680C607047000000230024002500268E
:10015000103A28BF78C1FBD8520728BF30C148BF2A
:100160000B607047642900F0ED80002070471FB5D8
:100170001FBD10B510BD00F0D3F91146FFF7F7FF12
:1001800002F064F900F0F1F903B4FFF7F2FF03BCE9
:1001900002F024F80948804709480047FEE7FEE7D7
:1001A000FEE7FEE7FEE7FEE7FEE7FEE7FEE7FEE727
:1001B00004480549054A064B70470000911700089E
:1001C000F1000008100B002010110020100D00207D
:1001D000100D002053EA020C00F069802DE9F04B6D
:1001E0004FF00006002B1FBFB3FA83F503FA05F4A6
:1001F00024FA05F65E4012BF1643B2FA82F502FAFF
:1002000005F4C5F120051EBF22FA05FC44EA0C04E2
:10021000203556EA044C4FEA144418BF641C4FF0D2
:1002200000084FF00009904271EB030C39D300290C
:1002300019BFB1FA81F701FA07F6B0FA80F700FAB0
:1002400007F6C7F120071EBF20FA07FC46EA0C0696
:100250002037B6FBF4FCA7EB0507103F07F01F0B98
:10026000CBF120060CFA0BFB2CFA06F644BFB34682
:100270000026202FA4BF5E464FF0000B5BEA060C61
:1002800008BF4FF0010B19EB0B09ABFB027C48EBED
:100290000608C01B06FB02CC0BFB03CC71EB0C0168
:1002A000C1E70B46024641464846BDE8F08B13B510
:1002B0004FF000004FF00001AFF30080BDE81C409C
:1002C000704700000FB4044910B503AA029800F06B
:1002D000F9F810BC5DF814FB180000202DE9F0417E
:1002E0000E460446002020622046E168884730B36D
:1002F000252805D0D4E901219047206A401CF2E767
:10030000E168204600278847050018D0A5F1410084
:10031000192802D820354FF4006732462946204676
:100320002760FFF71FFF40B1012804D0F61D26F01B
:1003300007060836D8E7361DD6E72846DAE7206AEA
:10034000BDE8F0812DE9F0410646002410687529CA
:10035000314616A510D0AFF30080002802DA4042E3
:1003600013A507E031688A0701D512A502E0490705
:1003700004D511A5012401E0AFF3008000210A2279
:1003800006F1240709E0B0FBF2FCB0FBF2F302FB3C
:100390001C00303078541846491C0028F3D12346FD
:1003A0002A463046BDE8F04100F032B800000000B7
:1003B0002D0000002B000000200000004FF0000284
:1003C00000B5134694469646203922BFA0E80C504B
:1003D000A0E80C50B1F12001BFF4F7AF090728BF26
:1003E000A0E80C5048BF0CC05DF804EB890028BFA2
:1003F00040F8042B08BF704748BF20F8022B11F0CB
:10040000804F18BF00F8012B704770477047704746
:100410002DE9F0470D4699469246044600F124081E
:100420000168880604D5E06921F01001216000E030
:100430000120A84201DD471B00E00027A1697A19CD
:1004400002EB0900081AA0612078C00602D42046F9
:10045000AFF30080002608E0D4E901211AF8060075
:100460009047206A401C761C20624E45F4DB2078C1
:10047000C0060AD52046AFF3008006E0D4E901218A
:1004800030209047206A401C2062381EA7F10107E7
:10049000F4DC07E0D4E9012118F805009047206A50
:1004A000401C2062281EA5F10105F3DC2046AFF3B5
:1004B00000802078000602D50220BDE8F0870120E8
:1004C000FBE70000074B70B50D467B4400F011F8C8
:1004D0000446284600F020F810B14FF0FF3070BD00
:1004E000204670BD1F1E000001694A1C0261087889
:1004F000704700B58FB0CDE9013100210591054964
:100500007944CDE9031011466846FFF7E7FE0FB0C6
:1005100000BD0000E5FFFFFF007B00F0800070479A
:10052000754600F02BF8AE4605006946534620F0AC
:100530000700854618B020B5FFF73AFEBDE8204019
:100540004FF000064FF000074FF000084FF0000B8F
:1005500021F00701AC46ACE8C009ACE8C009ACE842
:10056000C009ACE8C0098D46704710B50446AFF32A
:1005700000802046BDE81040FFF706BE00487047E7
:10058000B00A002021B1826842F00102826003E0DB
:10059000826822F001028260704721B1826842F4D1
:1005A0008072826003E0826822F480728260704709
:1005B00030B591B004460D462C2106A8FFF7FEFE8B
:1005C000142101A8FFF7FAFE00200090012108463F
:1005D00000F05CFF0121042000F078FF01210820D9
:1005E00000F074FF0121480200F070FF4FF440401A
:1005F00000F040FF454800F05FF945480690079439
:100600000020089009950A9080200B9040000C90E3
:1006100080000D9020200E9000020F90002010907E
:1006200006A93A4800F0EEF90620ADF800000020D7
:100630008DF803006946374800F003FA0220ADF850
:10064000000000208DF803006946334800F0F9F9F6
:100650002F484C3800F064F80020019001208DF8FC
:1006600008008DF809004FF46020039000200490EA
:1006700003208DF8140001A925484C3800F074F8C7
:10068000012123484C38FFF788FF012120484C38CE
:10069000FFF778FF1E484C3800F0EAF800BF1C480E
:1006A0004C3800F057F80028F9D119484C3800F0C0
:1006B000EFF800BF16484C3800F042F80028F9D196
:1006C0000121124800F0EBF80723012211461048DF
:1006D0004C3800F071F80723022211460C484C38C0
:1006E00000F06AF807230322092109484C3800F07A
:1006F00063F8012106484C3800F0BFF804484C3834
:1007000000F07EFB0549088011B030BD08000240B2
:100710004C24014000080140000C0140360000203C
:1007200010B504460548844207D10121401500F068
:10073000DDFE0021601500F0D9FE10BD002401404F
:10074000014600208A6802F004020AB1012000E09C
:1007500000207047014600208A6802F008020AB1B2
:10076000012000E00020704730B502460020002341
:1007700050680F4C20400D790C6844EA0524204352
:10078000506090680B4C2040D1E902542C434D79C5
:1007900044EA450420439060D06A20F470000C7C49
:1007A000641EE4B2234340EA0350D06230BD00002F
:1007B000FFFEF0FFFDF7F1FFF0B504460D46002007
:1007C0000021092D11DDE068A5F10A0606EB4607B8
:1007D000072606FA07F18843A5F10A0606EB460646
:1007E00003FA06F10843E0600CE0206905EB4507D9
:1007F000072606FA07F1884305EB450603FA06F1DA
:1008000008432061072A0FDA606B561E06EB860745
:100810001F2606FA07F18843561E06EB860605FAE0
:1008200006F10843606322E00D2A0FDA206BD61F21
:1008300006EB86071F2606FA07F18843D61F06EB4C
:10084000860605FA06F10843206310E0E06AA2F18B
:100850000D0606EB86071F2606FA07F18843A2F16C
:100860000D0606EB860605FA06F10843E062F0BDC8
:10087000816841F008018160704721B1826842F4CB
:10088000A002826003E0826822F4A00282607047C6
:10089000816841F004018160704700BFFEE721B12B
:1008A000026842F00102026004E002684FF6FE7343
:1008B0001A4002607047000001684FF6FE72114056
:1008C00001600021016041608160C1604B49884244
:1008D00008D14A490839496841F00F01474A083AA6
:1008E00051608AE045491431884208D143490839AA
:1008F000496841F0F001414A083A51607DE03F49C2
:100900002831884208D13D490839496841F470616D
:100910003A4A083A516070E038493C31884208D17F
:1009200036490839496841F47041344A083A5160FF
:1009300063E032495031884208D13049083949686A
:1009400041F470212D4A083A516056E02B49643138
:10095000884208D129490839496841F47001274A79
:10096000083A516049E025497831884208D1234945
:100970000839496841F07061204A083A51603CE00A
:100980001F49884206D1011F096841F00F01021F6B
:10099000116032E01A491431884208D11849091F00
:1009A000096841F0F001164A121F116025E0144950
:1009B0002831884208D11249091F096841F4706141
:1009C0000F4A121F116018E00D493C31884208D1CE
:1009D0000B49091F096841F47041094A121F11604F
:1009E0000BE007495031884207D10549091F0968C2
:1009F00041F47021024A121F116070470800024042
:100A00000804024010B50022026847F6F0739A43CA
:100A10000C6A8B6823430C6923434C6923438C691C
:100A20002343CC6923434C6A23438C6A23431A43F0
:100A30000260CB6843600B6883604B68C36010BD85
:100A400070472DE9F04102460025002600200023D2
:100A50000024002791F803C00CF00F0591F803C0A3
:100A60000CF0100CBCF1000F03D091F802C04CEA5E
:100A7000050591F800C0BCF1000F31D014680020CA
:100A80002BE04FF0010C0CFA00F3B1F800C00CEAB7
:100A900003069E4220D183004FF00F0C0CFA03F79F
:100AA000BC4305FA03FC4CEA040491F803C0BCF112
:100AB000280F06D14FF0010C0CFA00FCC2F814C04C
:100AC0000AE091F803C0BCF1480F05D14FF0010CCA
:100AD0000CFA00FCC2F810C0401C0828D1D31460E6
:100AE000B1F800C0BCF1FF0F34DD546800202EE0E7
:100AF00000F1080C4FF0010808FA0CF3B1F800C03F
:100B00000CEA03069E4221D183004FF00F0C0CFA31
:100B100003F7BC4305FA03FC4CEA040491F803C054
:100B2000BCF1280F05D100F1080C08FA0CF8C2F846
:100B3000148091F803C0BCF1480F07D100F1080CF4
:100B40004FF0010808FA0CF8C2F81080401C082881
:100B5000CED35460BDE8F081F0B50A4600230024EE
:100B60000021002500F00046B6F1004F02D11D4ED5
:100B7000F16901E01B4E7168C0F3034583B200F4D4
:100B80004016B6F5401F08D121F07061154E766809
:100B900026F07066134F7E6012E000F48016B6F502
:100BA000801F06D1032606FA05F4A14341F07061C7
:100BB00006E0460D360103FA06F6B14341F07061D6
:100BC00022B1460D360103FA06F6314300F0004625
:100BD000B6F1004F02D1034EF16101E0014E7160A8
:100BE000F0BD0000000001402DE9FC4700210C464B
:100BF0000D460E460F46002000900190804681462B
:100C0000824600BF8EE0564931F81010554AB2F9BD
:100C100000201144B1F5805F06DA514931F8101017
:100C200040F6FF72914209D140F6FF73E41845F196
:100C3000000508F101011FFA81F80DE0484931F87B
:100C40001010484AB2F900200A44141945EBE27525
:100C500008F101011FFA81F8414A00F1010132F85F
:100C60001110404AB2F900201144B1F5805F07DA53
:100C70003B4A411C32F8111040F6FF72914209D1F3
:100C800040F6FF73F61847F1000709F101011FFA5A
:100C900081F90EE0324A411C32F81110314AB2F9A2
:100CA00000200A44961947EBE27709F101011FFA87
:100CB00081F92B4A00F1020132F81110294AB2F9E8
:100CC00000201144B1F5805F07DA254A811C32F813
:100CD000111040F6FF7291420ED140F6FF7CDDE923
:100CE000001211EB0C0142F10002CDE900120AF1F1
:100CF00001011FFA81FA12E0194A811C32F8111021
:100D0000184AB2F900208B18DDE90012591842EB9D
:100D1000E37CCDE9001C0AF101011FFA81FA00F120
:100D2000030188B2B0F5617FFFF66DAF4246002344
:100D300020462946FFF74EFA0B4908804A46002311
:100D400030463946FFF746FA0749488052460023A5
:100D5000DDE90001FFF73EFA03498880BDE8FC8722
:100D600054030020360000203800002070B5FFF743
:100D70003BFF1E4909881E4AB2F90020501A01F0B3
:100D80001FFE04461948008800B219490880204611
:100D900001F0DAFD00B21749088014494988164A63
:100DA000B2F90020501A01F00BFE05460F484088AA
:100DB00000B211490880284601F0C6FD00B20D4975
:100DC00048800A4989880D4AB2F90020501A01F07A
:100DD000F7FD06460548808800B20849088030467D
:100DE00001F0B2FD00B20349888070BD38000020D8
:100DF000440000203E000020460000204800002063
:100E000010B588B00346002007901CE01846FFF795
:100E10002FFD00BF1846FFF79DFC0028FAD11846A9
:100E2000FFF736FD00BF1846FFF78AFC0028FAD10D
:100E3000D86C01A99DF81C2021F812009DF81C0017
:100E4000401CC0B207909DF81C000A28DEDB002081
:100E5000079035E00020069029E001A89DF81810C1
:100E600030F8111001AA9DF81800401C32F810004B
:100E7000814217DD01A89DF8181030F8110000908C
:100E800001A99DF81800401C31F810009DF81820A9
:100E900021F81200BDF8001001AA9DF81800401CAE
:100EA00022F810109DF81800401CC0B206909DF862
:100EB00018000928D1DB9DF81C00401CC0B2079027
:100EC0009DF81C000A28C5DB0020009007900FE069
:100ED00001A99DF81C00801C31F81000BDF800101D
:100EE000084480B200909DF81C00401CC0B20790DE
:100EF0009DF81C000628EBDBBDF80000062190FBE6
:100F0000F1F0BDF80010062291FBF2F402FB14117F
:100F1000032291FBF2F1084480B20090BDF800007A
:100F200000B2C0F5006000B208B010BD00BFFEE71F
:100F30004CF6CC400149086070470000003000408A
:100F400070B504460D4645F2555000F01FF8E0B26A
:100F500000F010F8284600F013F800F003F8FFF74F
:100F6000E7FF70BD4AF6AA200149086070470000FB
:100F700000300040014948607047000000300040E8
:100F80000149886070470000003000400149086056
:100F9000704700000030004008B50020009001219B
:100FA000042000F093FA3120ADF8000048208DF8BD
:100FB000030003208DF8020069460248FFF741FD57
:100FC00008BD00000008014000BFFEE770B53B49C6
:100FD000088801F00DFD3A4948613A4800683A49ED
:100FE00008603A48D0F894014860084601F0F8F8E3
:100FF000344908603648826831484169344801F014
:1010000007FA2F4948612D49088801F0F1FC05468F
:101010002E48D0F89411284601F03AFE04462D4996
:1010200001F0FAFC18D82549088801F0E1FC0546D2
:101030002648D0F89411284601F02AFE0446264995
:1010400001F0EAFD08D800201D4988610846816941
:10105000012000F067F970BD18480088B0F58A6F6C
:101060000EDA1648008840F65831884208DD002024
:101070001349886108468169012000F053F9EAE7C5
:101080000F4841690F4801F045F90D49886108464C
:101090008069502801DB502088610948806910F17F
:1010A000500F03DC6FF04F000549886104488069E8
:1010B0004142012000F036F900BFCCE738000020A3
:1010C000100200207C020020800A00206400002022
:1010D0005C0A00200000A0400000A0C070B53B49A1
:1010E000488801F085FC3A4948613A4800683A4925
:1010F00008603A48D0F898014860084601F070F856
:10110000344908603648826831484169344801F002
:101110007FF92F4948612D49488801F069FC05464F
:101120002E48D0F89811284601F0B2FD04462D490A
:1011300001F072FC18D82549488801F059FC054691
:101140002648D0F89811284601F0A2FD0446264909
:1011500001F062FD08D800201D49886108468169B8
:10116000022000F0DFF870BD18484088B0F58A6FA3
:101170000EDA1648408840F65831884208DD0020D3
:101180001349886108468169022000F0CBF8EAE73C
:101190000F4841690F4801F0BDF80D4988610846C4
:1011A0008069502801DB502088610948806910F16E
:1011B000500F03DC6FF04F000549886104488069D7
:1011C0004142022000F0AEF800BFCCE7380000201A
:1011D00030020020C4020020900A00206400002099
:1011E000680A00200000A0400000A0C070B53B4984
:1011F000888801F0FDFB3A4948613A4800683A495D
:1012000008603A48D0F89C014860084600F0E8FFC2
:10121000344908603648826831484169344801F0F1
:10122000F7F82F4948612D49888801F0E1FB054610
:101230002E48D0F89C11284601F02AFD04462D497D
:1012400001F0EAFB18D82549888801F0D1FB054652
:101250002648D0F89C11284601F01AFD044626497C
:1012600001F0DAFC08D800201D4988610846816930
:10127000032000F057F870BD18488088B0F58A6FD9
:101280000EDA1648808840F65831884208DD002082
:101290001349886108468169032000F043F8EAE7B2
:1012A0000F4841690F4801F035F80D49886108463B
:1012B0008069502801DB502088610948806910F15D
:1012C000500F03DC6FF04F000549886104488069C6
:1012D0004142032000F026F800BFCCE73800002090
:1012E000500200200C030020A00A0020640000200F
:1012F000740A00200000A0400000A0C010B500F05B
:1013000051F82321642000F0A7FA0021012000F009
:1013100009F80021022000F005F80021032000F068
:1013200001F810BD70B505460C46002C05DA644284
:101330000021284600F020F804E000BF01212846E3
:1013400000F01AF8642C00DD6424012D02D1094953
:101350000C800CE0022D03D10649091D0C8006E02B
:10136000032D03D1034908310C8000E070BD00BF9C
:10137000FCE7000034040040012802D1084A116053
:101380000CE0022803D1064A083A116006E003285F
:1013900003D1034A121F116000E0704700BFFCE751
:1013A000BC01224208B50121102000F08FF84FF453
:1013B0006040ADF8000010208DF8030003208DF888
:1013C000020069460748FFF73CFB01210846FFF78A
:1013D000D3FF01210220FFF7CFFF01210320FFF7F8
:1013E000CBFF08BD001001407047000070B5002120
:1013F00000230F22C47804B3154C246804F4E0647D
:10140000C4F5E064210AC1F10403CA40447804FA37
:1014100003F184781440214309010E4C0678A1554C
:10142000047804F01F050124AC4005786D11AD006F
:1014300005F1E025C5F8004109E0047804F01F0536
:101440000124AC40044D0678761145F8264070BD65
:101450000CED00E000E400E080E100E0024901431F
:10146000024A1160704700000000FA050CED00E030
:101470007047000001460020034A506820F44040B5
:1014800008435060704700000010024029B1064A2E
:1014900052690243044B5A6104E0034A5269824391
:1014A000014B5A61704700000010024029B1064A02
:1014B000D2690243044BDA6104E0034AD2698243F1
:1014C000014BDA61704700000010024029B1064A62
:1014D00092690243044B9A6104E0034A9269824391
:1014E000014B9A61704700000010024029B1064A82
:1014F000D2680243044BDA6004E0034AD2688243B4
:10150000014BDA60704700000010024030B5002146
:10151000002200240023324D6D6805F00C0121B13A
:10152000042905D008292CD105E02E4D05602BE0BB
:101530002C4D056028E02A4D6D6805F47012284D89
:101540006D6805F48034022505EB924264B9264D9E
:101550002D6805F010051DB1224D554305600FE0C3
:10156000224D554305600BE01D4D6D6805F40035B7
:101570001DB11E4D5543056002E01A4D55430560EF
:1015800002E0184D056000BF00BF154D6D6805F005
:10159000F0010909164D6B5C0568DD404560104D92
:1015A0006D6805F4E061090A114D6B5C4568DD402A
:1015B00085600B4D6D6805F46051C90A0C4D6B5C7C
:1015C0004568DD40C560064D6D6805F44041890BF6
:1015D000084D6B5CC568B5FBF3F5056130BD0000D7
:1015E0000010024000127A000038024000093D005D
:1015F0004E0000205E000020704710B500F002F899
:1016000010BD00002548006840F010002349086024
:101610002348006840F0100021490860084600682F
:1016200020F0030008600846006840F002000860EF
:101630001C4840681B4948600846406848600846A6
:10164000406840F4806048600846406820F47C10A0
:1016500048600846406840F4E0104860084600686A
:1016600040F08070086000BF0E48006800F0007015
:101670000028F9D00B48406820F003000949486071
:101680000846406840F00200486000BF05484068D6
:1016900000F00C000828F9D1704700000038024023
:1016A0000020024000100240042808D14FF0E02141
:1016B000096941F004014FF0E022116107E04FF0A9
:1016C000E021096921F004014FF0E0221161704727
:1016D0007047000010B5002100200022264B5B68F7
:1016E00003F00C0121B1042906D0082932D107E00A
:1016F000224B234C236031E0204B214C23602DE012
:101700001D4B5B6803F470101B4B5B6803F4803265
:10171000022303EB904072B91A4B1B6803F01003CD
:1017200023B1164B4343164C236012E0164B434340
:10173000134C23600DE0104B5B6803F4003323B1BE
:10174000114B43430E4C236003E00C4B43430C4CC2
:10175000236003E0094B0A4C236000BF00BF064B27
:101760005B68C3F30313094CE15C054B1B68CB407A
:10177000034C236010BD00000010024000127A00EC
:10178000000000200038024000093D000400002055
:1017900010B51348006840F0010011490860084680
:1017A0004068104908400E494860084600680E49E4
:1017B00008400B4908600846006820F48020086053
:1017C0000846406820F4FE0048604FF41F0088601F
:1017D000FFF713FF4FF000600449086010BD0000E0
:1017E000001002400000FFF8FFFFF6FE08ED00E0E9
:1017F00010B50221154800F051F970B11448006885
:10180000012805D113484068401C1249486004E093
:1018100010484068401E0F49486004210B4800F002
:101820003DF910B10948383000880821074800F018
:1018300035F910B105483C300088002003492431B7
:1018400008800F21014800F00BF910BD002C014069
:10185000B40122427002002030B589B005460C4622
:101860000020089005900690079001900290039048
:10187000049001210C20FFF729FE01210220FFF72F
:1018800015FEC020ADF8200018208DF8230003209D
:101890008DF8220008A93248FFF7D3F80120ADF8EF
:1018A000200018208DF8230003208DF8220008A9BD
:1018B0002C48FFF7C6F8ADF81850ADF814400020DA
:1018C000ADF81A00ADF8160005A9274800F0EAF9AE
:1018D0006020ADF804000120ADF806000020ADF84E
:1018E0000A00ADF80C0001A91F4800F0F1F86020D3
:1018F000ADF804000120ADF806000020ADF80A00A4
:10190000ADF80C0001A9184800F022F96020ADF8EC
:1019100004000120ADF806000020ADF80A00ADF883
:101920000C0001A9104800F06BF901210E4800F0ED
:10193000A6F808210C4800F001F908210A4800F037
:1019400051F90821084800F0A3F90121064800F0E8
:101950007BF80121044800F086F809B030BD000092
:1019600000080140000C01400004004010B50121B6
:10197000174800F093F848B30121154800F070F8BB
:1019800014480088401C13490880084600880A282B
:1019900016D1002008801049B1F9000001F010F8BC
:1019A0000E4908610C49B1F9020001F009F80C492F
:1019B00008610949B1F9040001F002F80949086118
:1019C000FFF704FBFFF78AFBFFF710FC10BD0000D8
:1019D00000080040340000203E00002010020020DB
:1019E00030020020500200207FB505460C46012140
:1019F0000420FFF75BFDADF80850ADF8044000206F
:101A0000ADF80A00ADF8060001A90E4800F04AF949
:101A1000012211460B4800F052F80121094800F05C
:101A200022F81E208DF8000003208DF8010002200E
:101A30008DF8020001208DF803006846FFF7D6FC00
:101A40007FBD00000008004021B1028842F0800202
:101A5000028004E002884FF67F731A4002807047CC
:101A6000CA430282704721B1028842F0010202801B
:101A700004E002884FF6FE731A400280704731B1CD
:101A8000B0F8442042F40042A0F8442005E0B0F849
:101A90004420C2F30E02A0F84420704730B502463D
:101AA000002000230024158A05EA0103958905EA30
:101AB000010413B10CB1012000E0002030BD1AB1C7
:101AC00083890B43838102E083898B438381704741
:101AD00070B5002400220023058C4FF6FE763540B9
:101AE0000584028C8388048B4FF68F752C40B51EBD
:101AF0002C400D882C43751E2A400D892A434D88A1
:101B00002A430D4DA84211D1F51F2A404D892A4381
:101B1000F51E2A408D882A434FF6FF652B404FF66D
:101B2000FF552B408D892B43CD892B438380048324
:101B3000CD888586028470BD002C01400A460021B4
:101B4000018B4FF6F7731940114301837047000072
:101B500070B5002400220023058C4FF6EF76354047
:101B60000584028C8388048B48F6FF752C404FF661
:101B7000FF452C400D884FF6FF7606EA05252C43DD
:101B80004FF6DF752A400D8906EA05152A434D8870
:101B900006EA05152A43124DA8421BD14FF67F7560
:101BA0002A404D8906EA05152A434FF6BF752A409B
:101BB0008D8806EA05152A434FF6FF352B404FF274
:101BC000FF752B408D8906EA85052B43CD8906EAF2
:101BD00085052B4383800483CD880587028470BDEF
:101BE000002C01400A460021018B4FF2FF7319407F
:101BF0004FF6FF7303EA0223194301837047000085
:101C000070B5002400220023058C4FF6FF66354096
:101C10000584028C8388848B4FF68F752C404FF699
:101C2000FC752C400D882C434FF6FF552A400D893A
:101C30004FF6FF7606EA05252A434D8806EA052574
:101C40002A43124DA8421BD14FF2FF752A404D89FD
:101C500006EA05252A434FF6FF352A408D8806EA15
:101C600005252A434EF6FF752B404DF6FF752B4098
:101C70008D8906EA05152B43CD8906EA05152B4308
:101C800083808483CD888587028470BD002C0140C9
:101C90000A460021818B4FF6F77319401143818367
:101CA0007047000000220288114B984208D0B0F122
:101CB000804F05D00F4B984202D00F4B984204D171
:101CC0004FF68F731A404B881A434FF6FF431A4062
:101CD000CB881A4302808B8883850B880385044B4D
:101CE000984201D10B7A038601238382704700005A
:101CF000002C014000040040000800403EB540F2C6
:101D000025519A4800F0B9F900287BD09748001D6A
:101D10000088C1B2964890F8C920401C8154401EEA
:101D200090F8C910401C405C90286CD1904890F805
:101D3000C900401E8E49491C085CEB28F5D1481E9D
:101D40004078AC2860D1002109E0894A521C535CDC
:101D5000C93253540023C93A53544A1CD1B2844A5D
:101D600092F8C920521C8A42EFDC002007E080492B
:101D7000CA31421C895C02AA1154411CC8B2042811
:101D8000F5DB7C4A02991160002007E0784ACA32EC
:101D9000411D515C01AA1154411CC8B20428F5DB55
:101DA000754A01991160002008E0714ACA3200F1B9
:101DB0000901515C0DF80010411CC8B20428F4DB85
:101DC0006E4A009911606B4909686D4AD1606A4991
:101DD0000968116169490968516166490968694A78
:101DE000D1606549096811616449096851616149B7
:101DF0000968654AD1606049096811615F490968ED
:101E00005161A5E0B0E0A8E059484078CC283CD129
:101E1000002009E05649491C0A5CC9310A540022D5
:101E2000C9390A54411CC8B2514991F8C910491C1A
:101E30008142EFDC002407E04D48CA30611C405C61
:101E400002A90855601CC4B2042CF5DB029800F00E
:101E500097FD85B2284600F0CBFD4549C1F89401B5
:101E6000029800F08DFD85B2284600F0C1FD404982
:101E7000C1F89801029800F083FD85B2284600F071
:101E8000B7FD3B49C1F89C0162E039484078AD2874
:101E90005ED1002109E0364A521C535CC9325354CA
:101EA0000023C93A53544A1CD1B2314A92F8C9208E
:101EB000521C8A42EFDC002007E02D49CA31421C47
:101EC000895C02AA1154411CC8B20428F5DB2F4AD0
:101ED00002991160002007E0254ACA32411D515C79
:101EE00001AA1154411CC8B20428F5DB284A019903
:101EF0001160002008E01E4ACA3200F10901515C5D
:101F00000DF80010411CC8B20428F4DB214A0099E6
:101F100011601E490968204AD1601D490968116194
:101F20001C4909685161194909681C4AD16018495E
:101F30000968116117490968516114490968184A0B
:101F4000D16013490968116112490968516100BFE4
:101F50000020074981F8C90006E0054890F8C9004B
:101F6000401C034981F8C9003EBD00000038014013
:101F7000640000201C00002020000020240000201D
:101F80007C020020C40200200C0300202800002056
:101F90002C00002030000020A0020020E8020020D9
:101FA0003003002010B586B00446012144F2080039
:101FB000FFF78CFA01210846FFF788FA0121042077
:101FC000FEF7CAFD4020ADF8140003208DF816007E
:101FD00018208DF8170005A91B48FEF732FD802058
:101FE000ADF8140004208DF8170005A91648FEF777
:101FF00028FD25208DF8000003208DF80100012028
:102000008DF802008DF803006846FFF7EFF90194A0
:102010000020ADF80800ADF80A00ADF80C00ADF8EE
:1020200010000C20ADF80E0001A9084800F06CF873
:10203000012240F22551054800F045F801210348EE
:1020400000F006F806B010BD000C01400038014059
:1020500021B1828942F40052828104E082894DF6E6
:10206000FF731A40828170470246002013880B409C
:102070000BB1012000E00020704770B502460B460E
:102080000024002100250020C3F3421503F01F01A6
:10209000012606FA01F1012D02D19689314006E0B0
:1020A000022D02D1168A314001E0968A31401C127D
:1020B000012606FA04F41688344011B10CB101204F
:1020C00000E0002070BDF0B5034600240026002586
:1020D00000201846C1F3421401F01F06012707FA39
:1020E00006F5012C01D10C3004E0022C01D1103096
:1020F00000E014301AB107682F43076002E0076858
:10210000AF430760F0BD00002DE9F04786B00546FB
:102110000E460024A24600BFA14600272F462C8A67
:102120004CF6FF700440F08804432C82AC894EF6D4
:10213000F3100440B088318908437189084304438F
:10214000AC81AC8A4FF6FF400440B0890443AC82B6
:1021500001A8FFF7DBF91F48874202D1DDF810A084
:1021600001E0DDF80CA0A88900F4004040B10AEBC2
:10217000CA0000EB0A1031684900B0FBF1F807E033
:102180000AEBCA0000EB0A1031688900B0FBF1F8D5
:102190006420B8FBF0F004012009642101FB1089E0
:1021A000A88900F4004040B1322000EBC900B0FB28
:1021B000F1F000F00700044308E0322000EB0910C2
:1021C0006421B0FBF1F000F00F0004432C8106B055
:1021D000BDE8F0870038014000BFFEE700BF704750
:1021E00070B50446D4E9000100F016FC06D24FF0A9
:1021F0007E51206800F006FB20600AE0D4E900016F
:1022000000F00AFD05D24FF07E51206800F040FD3D
:102210002060D4E9001000F03BFDE060D4E902103A
:1022200000F02EFCE0600021E06800F059FB12D0C5
:102230000021E06800F0F0FC05D2E168206800F0C1
:10224000E1FA206007E0E06880F000452846216858
:1022500000F013FD2060206870BD000010B56FF025
:102260000400FFF721FA0A4800680A49B0FBF1F0C0
:10227000094908700846007800EB4001C1EBC01026
:102280004FF6FF7101EAC0000449088010BD00004C
:102290000000002000127A004A0000204C000020BC
:1022A0000146114A12884A434FF0E0235A61002246
:1022B0009A611A46126942F001021A6100BF4FF09A
:1022C000E022106900F001021AB100F48032002A05
:1022D000F5D04FF0E022126922F001024FF0E02326
:1022E0001A6100229A6170474C00002070B50446C4
:1022F0000D4600BF40210648FFF7B6FE0028F9D082
:10230000C4F308000249091D0880204670BD000082
:10231000003801402DE9F84F0446884620684146C0
:1023200000F0B6FCA0612169A06800F0A9FB009054
:102330001F48009900F0ACFC05461E48009900F0CB
:10234000A7FC0646A169A06800F05CFAA060A0683E
:10235000294600F061FC01D2A56005E0A068314685
:1023600000F05AFB00D2A660A168206900F088FB4B
:102370008146A169E06800F083FB8246E169A069BB
:1023800000F086FC8346616900F07AFB0746494607
:10239000504600F037FA8346394600F033FA606061
:1023A000A069E061606800F0CFFABDE8F88F000036
:1023B00000803B4500803BC508B50020009001210E
:1023C0001020FFF783F84FF40050ADF80000102004
:1023D0008DF8030003208DF8020069460A48FEF7D5
:1023E00030FB01210420FFF771F80820ADF8000050
:1023F00010208DF8030003208DF802006946034881
:10240000FEF71FFB08BD000000100140000801405E
:102410002DE9F04704460E46154629464FF07E50FA
:1024200000F036FC07462846216800F029FB80466C
:102430003146384600F024FB8146414600F0E2F97F
:102440006060606820606068BDE8F08708B5FFF7ED
:1024500041F9FFF703FF4FF4A060FEF7FFFF4FF4D1
:102460006140FFF79FFDFEF749FF00F08BF9FEF793
:1024700093FD4FF46171AB48FEF79AF800BFA9488D
:10248000B0F806070028FAD0FEF7AEFBA648A74929
:102490008860A7498860A74988600020A6498860AD
:1024A000A6498860A6498860A649088800F0A0FA75
:1024B000A549C1F89401A349488800F099FAA249B6
:1024C000C1F898019F49888800F092FA9E49C1F8A6
:1024D0009C01D1F894014FF07E5100F0D1FA964959
:1024E00048609949D1F898014FF07E5100F0C8FA40
:1024F000924948609449D1F89C014FF07E5100F018
:10250000BFFA8F4948609049D1F894014FF07E514D
:1025100000F0B6FA884908608B49D1F898014FF06D
:102520007E5100F0ADFA854908608749D1F89C01D9
:102530004FF07E5100F0A4FA814908608249D1F839
:1025400094014FF07E5100F09BFA784908607E4973
:10255000D1F894014FF07E5100F092FA734948602F
:102560007949D1F898014FF07E5100F089FA70490D
:1025700008607549D1F898014FF07E5100F080FA5B
:102580006B4948607049D1F89C014FF07E5100F0D2
:1025900077FA684908606C49D1F89C014FF07E5188
:1025A00000F06EFA634948606749D1F894014FF032
:1025B0007E5100F065FA654908606349D1F89801D9
:1025C0004FF07E5100F05CFA614908605E49D1F835
:1025D0009C014FF07E5100F053FA5E49086054E0D0
:1025E0005849088800F004FA5B4948615748006878
:1025F0004E4908605448D0F8940148600846FFF7F7
:10260000EFFD524908604F49488800F0F1F95349FD
:1026100048614F480068464908604B48D0F8980127
:1026200048600846FFF7DCFD49490860454988884D
:1026300000F0DEF94A494861464800683D490860B3
:102640004148D0F89C0148600846FFF7C9FD414960
:1026500008603E4A11683C4AD2F8940100F040F903
:1026600010D13B4A1168384AD2F8980100F038F985
:1026700008D1384A1168344AD2F89C0100F030F988
:1026800000D103E00A20FFF70BFEA9E700BF4721B6
:1026900044F61F60FFF7A8F940F271210420FEF70D
:1026A0004FFCFFF789FE3BE02E480088401C2D4977
:1026B000088008460088052805D1002008804AF6D1
:1026C000AA20294908600520FFF7EAFD274800787D
:1026D000401C26490870084600780A2809D10020C5
:1026E00008702348006808B9012000E00020204954
:1026F00008601849086800F027F904461249D1F823
:102700009C0100F021F90546154800948069434278
:102710000C4881882A4617A0FDF7D4FDFEF726FB5A
:10272000C2E70000540300203D0AD73D800A002084
:10273000900A0020A00A00205C0A0020680A0020FD
:10274000740A002038000020640000207C02002071
:10275000C40200200C0300201002002030020020E0
:10276000500200201400002000300040160000201D
:102770008C01214225642C25642C25642C25640DB4
:102780000A000000002019490860486088608861DC
:10279000C861086216480068C86016480068086189
:1027A0001548006848610020144908604860886046
:1027B0008861C86108620E480068C8600D480068FA
:1027C00008610D480068486100200D4908604860B4
:1027D00088608861C861086205480068C86005486B
:1027E0000068086104480068486170477C02002066
:1027F0001C0000202000002024000020C402002033
:102800000C03002090EA010F48BF81F0004100F165
:102810004682421A3CBF801A89184FEAD0524FF0C4
:102820007F4C1CEA410FA2EBD15318BF9CEA026F08
:1028300000F03B804FF0004C4CEA00204CEA0121B4
:1028400021FA03FC10EB0C0C1ED202F1FF325FEAFE
:102850001C2040EBC25038BF70471CF07F0F4FEA7E
:10286000400C18BFBCF17F4F38BF7047C3F1200345
:10287000994008BF20F00100BCF17F4F38BF70477E
:10288000A0F1C04000F0C3B94FEA3C00000A40EBA1
:10289000C25028BF1CF0FF0F4FEA400CE6D018BF13
:1028A000BCF17F4F38BF7047EAE79CEA026F05D062
:1028B00010EA5C0F08BF00F00040704710B500F050
:1028C00060F900BF64FBBE3E401058BFC0F14040FD
:1028D000491058BFC1F140418142EFF30080704779
:1028E00050EA010C00F113801CF5000F58BFBCF535
:1028F000000F01D48842704707D710F5000F58BF6A
:1029000011F5000F15D488427047894270471CF5B5
:10291000000F04D5BCF5000FF7D5814270474FF08A
:10292000807C1CEB400F38BF1CEB410F01D2814271
:10293000704710B500F025F9922449004FF000507F
:102940004FF08051FFF7C0BF41000B0ED3F19E0244
:1029500008D950F400034FEA032323FA02F048BFDA
:102960004042704710B500F00CF900BF4992248036
:10297000002070476FF0004282EA2000704700009C
:10298000C10DD1F19E0206DB4FEA002343F0004364
:1029900023FA02F07047004207D54FEA4001B1F137
:1029A000FE4F02D24FF00000704710B500F0E9F87A
:1029B00049922480002070476FEA20007047000091
:1029C00010F0004148BF4042B0FA80F310FA03F221
:1029D000C3F19D030BD051EAC35101EB1220530602
:1029E00038BF704700F1010008BF20F001007047B8
:1029F000B0FA80F310FA03F2C3F19D030AD0D905AF
:102A000001EB1220530638BF704700F1010008BFE8
:102A100020F001007047000050EA010C00F1138023
:102A20001CF5000F58BFBCF5000F01D48842704759
:102A300007D710F5000F58BF11F5000F15D48842C5
:102A40007047894270471CF5000F04D5BCF5000F94
:102A5000F7D5814270474FF0807C1CEB400F38BFA8
:102A60001CEB410F01D28142704710B500F089F88C
:102A7000922449004FF000504FF08051FFF724BFDF
:102A80004FF47F0C1CEAD0121EBF1CEAD11392EA4D
:102A90000C0F93EA0C0F00F0478090EA010F48BF3B
:102AA00042F480724FF0004C4CEA00204CEA0121C5
:102AB00002EB0302A0FB0113A2F50002002918BFDC
:102AC00043F001035B0028BF4FEA330342EB22428D
:102AD0005FEA132C4CEBC2502EBFBCEB436FB2F538
:102AE0007C0F70474FEA036CBCF1004F08BF20F029
:102AF0000100B2F57C0F38BF70470BD582F0FF02A2
:102B000012F5803FC8BF704700F1C040D8BF00F049
:102B10000040704700F5000C5FEA4C0C48BF70475E
:102B2000B0F1C04000F073B890EA010F0CEAD11385
:102B300048BF42F48072624538BF634504D280EAE0
:102B4000010000F00040704710B500F01AF800BF17
:102B50008900013E00F007B800F009B85FEA410CB7
:102B60005FEA1C6C08D080EA010000F050B85FEA10
:102B7000400C5FEA1C6CF6D14FF00040A0F58000DD
:102B800070470EF1020E2EF0030E5EF8044B244245
:102B900004D44FEA4102B2F17F4F11D84FEA40030B
:102BA000B3F17F4F0CD80ED14FEAD07CB2F17F4FFA
:102BB0000CEB4C0C0CF1020C08BF4CEBD17C04E08C
:102BC0004FF0080C01E04FEAD17C0CEB4C0324FAE7
:102BD00003F404F00704B4F1040C06D20EEB840CE9
:102BE000BDE810404CF0010C6047DFE80CF007082E
:102BF00002024FF00040A0F5800010BD08464200E0
:102C000018BFD2F1807288BF00F0004010BDFF21D4
:102C100041EAD050C005704751EA000C00F1138022
:102C20001CF5000F58BFBCF5000F01D4814270475E
:102C300007D711F5000F58BF10F5000F15D48142CA
:102C40007047894270471CF5000F04D5BCF5000F92
:102C5000F7D5884270474FF0807C1CEB410F38BF9E
:102C60001CEB400F01D28842704780EA010081EAE4
:102C7000000180EA0100FFF7F8BE80F0004090EA12
:102C8000010F7FF5C6AD81F0004100F008B80000EB
:102C900090EA010F48BF81F000413FF5BAAD421AFA
:102CA00004D882F00042A0EB020011444FEAD05257
:102CB0004FF07F4C1CEA410FA2EBD15318BF9CEAA6
:102CC000026F4AD04FF0004C4CEA00204CEA012140
:102CD00021FA03FCB0EB0C0C0FD412F0FE0F36D02F
:102CE0005FEA4C001DD5001240EBC25038BF704760
:102CF0001CF03F0F18BF70470BE0A2F101025FEA22
:102D00001C2040EBC25038BF70471CF07F0F18BF2B
:102D10007047C3F12003994014BF401E20F001000A
:102D2000704780084FEA122308BF7047B0FA80FC52
:102D3000A2EB0C02CCF1280C60FA0CF093EA122FF3
:102D400004BF00EBC25070474FEAC3707047130ACC
:102D50005FEADC1008BF7047F6E79CEA026F04D018
:102D600010EA5C0F08BF0020704710B5FFF709FF9D
:102D700040DFF63E81F00040704700009C2D0008C7
:102D800000000020640000002C010008002E000854
:102D900064000020AC1000004801000800A24A04B2
:102DA00000000000000000000102030406070809FB
:102DB0000000000000000000000000000000000013
:102DC0000000000000000000000000000000000003
:102DD00000000000000000000000000000000000F3
:102DE00000000000000000000000000000000102E0
:102DF0000304010203040607080902040608000090
:04000005080000F1FE
:00000001FF
